{
  "_format": "hh-sol-artifact-1",
  "contractName": "walkCompetition",
  "sourceName": "contracts/walkCompetition.sol",
  "abi": [
    {
      "inputs": [],
      "stateMutability": "nonpayable",
      "type": "constructor"
    },
    {
      "anonymous": false,
      "inputs": [
        {
          "indexed": true,
          "internalType": "address",
          "name": "from",
          "type": "address"
        },
        {
          "indexed": false,
          "internalType": "uint256",
          "name": "timestamp",
          "type": "uint256"
        },
        {
          "indexed": false,
          "internalType": "uint8",
          "name": "walkedMiles",
          "type": "uint8"
        }
      ],
      "name": "NewMile",
      "type": "event"
    },
    {
      "inputs": [],
      "name": "getTotalmiles",
      "outputs": [
        {
          "components": [
            {
              "internalType": "address",
              "name": "walker",
              "type": "address"
            },
            {
              "internalType": "uint8",
              "name": "walkedMiles",
              "type": "uint8"
            },
            {
              "internalType": "uint256",
              "name": "timestamp",
              "type": "uint256"
            }
          ],
          "internalType": "struct walkCompetition.Mile[]",
          "name": "",
          "type": "tuple[]"
        }
      ],
      "stateMutability": "view",
      "type": "function"
    },
    {
      "inputs": [
        {
          "internalType": "uint8",
          "name": "_mile",
          "type": "uint8"
        }
      ],
      "name": "mile",
      "outputs": [],
      "stateMutability": "nonpayable",
      "type": "function"
    }
  ],
  "bytecode": "0x608060405234801561001057600080fd5b506100596040518060400160405280600481526020017f594f4f4f0000000000000000000000000000000000000000000000000000000081525061005e60201b6103111760201c565b6101e1565b6100fa81604051602401610072919061015f565b6040516020818303038152906040527f41304fac000000000000000000000000000000000000000000000000000000007bffffffffffffffffffffffffffffffffffffffffffffffffffffffff19166020820180517bffffffffffffffffffffffffffffffffffffffffffffffffffffffff83818316178352505050506100fd60201b60201c565b50565b60008151905060006a636f6e736f6c652e6c6f679050602083016000808483855afa5050505050565b600061013182610181565b61013b818561018c565b935061014b81856020860161019d565b610154816101d0565b840191505092915050565b600060208201905081810360008301526101798184610126565b905092915050565b600081519050919050565b600082825260208201905092915050565b60005b838110156101bb5780820151818401526020810190506101a0565b838111156101ca576000848401525b50505050565b6000601f19601f8301169050919050565b610915806101f06000396000f3fe608060405234801561001057600080fd5b50600436106100365760003560e01c80632f9290f91461003b578063c9c4651814610059575b600080fd5b610043610075565b6040516100509190610694565b60405180910390f35b610073600480360381019061006e9190610520565b610151565b005b60606001805480602002602001604051908101604052809291908181526020016000905b8282101561014857838290600052602060002090600202016040518060600160405290816000820160009054906101000a900473ffffffffffffffffffffffffffffffffffffffff1673ffffffffffffffffffffffffffffffffffffffff1673ffffffffffffffffffffffffffffffffffffffff1681526020016000820160149054906101000a900460ff1660ff1660ff16815260200160018201548152505081526020019060010190610099565b50505050905090565b600160008082825461016391906107b6565b925050819055506101ac6040518060400160405280600e81526020017f4861732077616c6b6564202573200000000000000000000000000000000000008152508260ff166103aa565b600160405180606001604052803373ffffffffffffffffffffffffffffffffffffffff1681526020018360ff16815260200142815250908060018154018082558091505060019003906000526020600020906002020160009091909190915060008201518160000160006101000a81548173ffffffffffffffffffffffffffffffffffffffff021916908373ffffffffffffffffffffffffffffffffffffffff16021790555060208201518160000160146101000a81548160ff021916908360ff1602179055506040820151816001015550506102be6040518060400160405280600e81526020017f4861732077616c6b65642025732000000000000000000000000000000000000081525033610446565b3373ffffffffffffffffffffffffffffffffffffffff167fecd2178cd0c08809dcb40ecfb327640227676f5bba64e0a818779366527601e74283604051610306929190610738565b60405180910390a250565b6103a78160405160240161032591906106b6565b6040516020818303038152906040527f41304fac000000000000000000000000000000000000000000000000000000007bffffffffffffffffffffffffffffffffffffffffffffffffffffffff19166020820180517bffffffffffffffffffffffffffffffffffffffffffffffffffffffff83818316178352505050506104e2565b50565b61044282826040516024016103c0929190610708565b6040516020818303038152906040527f9710a9d0000000000000000000000000000000000000000000000000000000007bffffffffffffffffffffffffffffffffffffffffffffffffffffffff19166020820180517bffffffffffffffffffffffffffffffffffffffffffffffffffffffff83818316178352505050506104e2565b5050565b6104de828260405160240161045c9291906106d8565b6040516020818303038152906040527f319af333000000000000000000000000000000000000000000000000000000007bffffffffffffffffffffffffffffffffffffffffffffffffffffffff19166020820180517bffffffffffffffffffffffffffffffffffffffffffffffffffffffff83818316178352505050506104e2565b5050565b60008151905060006a636f6e736f6c652e6c6f679050602083016000808483855afa5050505050565b60008135905061051a816108c8565b92915050565b60006020828403121561053257600080fd5b60006105408482850161050b565b91505092915050565b60006105558383610616565b60608301905092915050565b61056a8161080c565b82525050565b6105798161080c565b82525050565b600061058a82610771565b6105948185610794565b935061059f83610761565b8060005b838110156105d05781516105b78882610549565b97506105c283610787565b9250506001810190506105a3565b5085935050505092915050565b60006105e88261077c565b6105f281856107a5565b9350610602818560208601610855565b61060b816108b7565b840191505092915050565b60608201600082015161062c6000850182610561565b50602082015161063f6020850182610676565b5060408201516106526040850182610658565b50505050565b6106618161083e565b82525050565b6106708161083e565b82525050565b61067f81610848565b82525050565b61068e81610848565b82525050565b600060208201905081810360008301526106ae818461057f565b905092915050565b600060208201905081810360008301526106d081846105dd565b905092915050565b600060408201905081810360008301526106f281856105dd565b90506107016020830184610570565b9392505050565b6000604082019050818103600083015261072281856105dd565b90506107316020830184610667565b9392505050565b600060408201905061074d6000830185610667565b61075a6020830184610685565b9392505050565b6000819050602082019050919050565b600081519050919050565b600081519050919050565b6000602082019050919050565b600082825260208201905092915050565b600082825260208201905092915050565b60006107c18261083e565b91506107cc8361083e565b9250827fffffffffffffffffffffffffffffffffffffffffffffffffffffffffffffffff0382111561080157610800610888565b5b828201905092915050565b60006108178261081e565b9050919050565b600073ffffffffffffffffffffffffffffffffffffffff82169050919050565b6000819050919050565b600060ff82169050919050565b60005b83811015610873578082015181840152602081019050610858565b83811115610882576000848401525b50505050565b7f4e487b7100000000000000000000000000000000000000000000000000000000600052601160045260246000fd5b6000601f19601f8301169050919050565b6108d181610848565b81146108dc57600080fd5b5056fea26469706673582212203798e3280c7f951e17c769ffb64119de559e7a761c9ffdd6577cb24d4927f3ce64736f6c63430008040033",
  "linkReferences": {},
  "deployedLinkReferences": {}
}