{
  "_format": "hh-sol-artifact-1",
  "contractName": "walkCompetition",
  "sourceName": "contracts/walkCompetition.sol",
  "abi": [
    {
      "inputs": [],
      "stateMutability": "payable",
      "type": "constructor"
    },
    {
      "anonymous": false,
      "inputs": [
        {
          "indexed": true,
          "internalType": "address",
          "name": "from",
          "type": "address"
        },
        {
          "indexed": false,
          "internalType": "uint256",
          "name": "timestamp",
          "type": "uint256"
        },
        {
          "indexed": false,
          "internalType": "uint8",
          "name": "walkedMiles",
          "type": "uint8"
        }
      ],
      "name": "NewMile",
      "type": "event"
    },
    {
      "anonymous": false,
      "inputs": [
        {
          "indexed": false,
          "internalType": "address",
          "name": "user",
          "type": "address"
        },
        {
          "indexed": false,
          "internalType": "uint256",
          "name": "amount",
          "type": "uint256"
        }
      ],
      "name": "ValueReceived",
      "type": "event"
    },
    {
      "inputs": [
        {
          "internalType": "uint256",
          "name": "_bet",
          "type": "uint256"
        },
        {
          "internalType": "string",
          "name": "AName",
          "type": "string"
        },
        {
          "internalType": "address",
          "name": "_address",
          "type": "address"
        }
      ],
      "name": "betPlaced",
      "outputs": [],
      "stateMutability": "payable",
      "type": "function"
    },
    {
      "inputs": [],
      "name": "getAllMiles",
      "outputs": [
        {
          "components": [
            {
              "internalType": "address",
              "name": "walker",
              "type": "address"
            },
            {
              "internalType": "uint8",
              "name": "walkedMiles",
              "type": "uint8"
            },
            {
              "internalType": "uint256",
              "name": "timestamp",
              "type": "uint256"
            }
          ],
          "internalType": "struct walkCompetition.Mile[]",
          "name": "",
          "type": "tuple[]"
        }
      ],
      "stateMutability": "view",
      "type": "function"
    },
    {
      "inputs": [
        {
          "internalType": "address",
          "name": "_address",
          "type": "address"
        }
      ],
      "name": "getAthletes",
      "outputs": [
        {
          "internalType": "string",
          "name": "",
          "type": "string"
        },
        {
          "internalType": "uint256",
          "name": "",
          "type": "uint256"
        },
        {
          "internalType": "uint256",
          "name": "",
          "type": "uint256"
        }
      ],
      "stateMutability": "view",
      "type": "function"
    },
    {
      "inputs": [],
      "name": "getBalance",
      "outputs": [
        {
          "internalType": "uint256",
          "name": "",
          "type": "uint256"
        }
      ],
      "stateMutability": "view",
      "type": "function"
    },
    {
      "inputs": [],
      "name": "getTotalMiles",
      "outputs": [
        {
          "internalType": "uint256",
          "name": "",
          "type": "uint256"
        }
      ],
      "stateMutability": "view",
      "type": "function"
    },
    {
      "inputs": [
        {
          "internalType": "uint8",
          "name": "_mile",
          "type": "uint8"
        }
      ],
      "name": "mile",
      "outputs": [],
      "stateMutability": "nonpayable",
      "type": "function"
    },
    {
      "inputs": [],
      "name": "owner",
      "outputs": [
        {
          "internalType": "address payable",
          "name": "",
          "type": "address"
        }
      ],
      "stateMutability": "view",
      "type": "function"
    },
    {
      "inputs": [
        {
          "internalType": "address payable",
          "name": "_to",
          "type": "address"
        }
      ],
      "name": "sendViaCall",
      "outputs": [],
      "stateMutability": "payable",
      "type": "function"
    },
    {
      "inputs": [
        {
          "internalType": "address",
          "name": "user",
          "type": "address"
        }
      ],
      "name": "takeBet",
      "outputs": [],
      "stateMutability": "payable",
      "type": "function"
    },
    {
      "inputs": [
        {
          "internalType": "address payable",
          "name": "_to",
          "type": "address"
        },
        {
          "internalType": "uint256",
          "name": "_amount",
          "type": "uint256"
        }
      ],
      "name": "transfer",
      "outputs": [],
      "stateMutability": "nonpayable",
      "type": "function"
    },
    {
      "inputs": [
        {
          "internalType": "address",
          "name": "",
          "type": "address"
        }
      ],
      "name": "walkBets",
      "outputs": [
        {
          "internalType": "uint256",
          "name": "",
          "type": "uint256"
        }
      ],
      "stateMutability": "view",
      "type": "function"
    },
    {
      "stateMutability": "payable",
      "type": "receive"
    }
  ],
  "bytecode": "0x608060405233600160006101000a81548173ffffffffffffffffffffffffffffffffffffffff021916908373ffffffffffffffffffffffffffffffffffffffff160217905550620000b36040518060400160405280600781526020017f594f4f4f20257300000000000000000000000000000000000000000000000000815250600160009054906101000a900473ffffffffffffffffffffffffffffffffffffffff16620000b960201b62000b5f1760201c565b620002a5565b6200015b8282604051602401620000d2929190620001da565b6040516020818303038152906040527f319af333000000000000000000000000000000000000000000000000000000007bffffffffffffffffffffffffffffffffffffffffffffffffffffffff19166020820180517bffffffffffffffffffffffffffffffffffffffffffffffffffffffff83818316178352505050506200015f60201b60201c565b5050565b60008151905060006a636f6e736f6c652e6c6f679050602083016000808483855afa5050505050565b62000193816200022a565b82525050565b6000620001a6826200020e565b620001b2818562000219565b9350620001c48185602086016200025e565b620001cf8162000294565b840191505092915050565b60006040820190508181036000830152620001f6818562000199565b905062000207602083018462000188565b9392505050565b600081519050919050565b600082825260208201905092915050565b600062000237826200023e565b9050919050565b600073ffffffffffffffffffffffffffffffffffffffff82169050919050565b60005b838110156200027e57808201518184015260208101905062000261565b838111156200028e576000848401525b50505050565b6000601f19601f8301169050919050565b6116a980620002b56000396000f3fe6080604052600436106100a05760003560e01c8063a7fdbaeb11610064578063a7fdbaeb146101b2578063a9059cbb146101dd578063c6ea45be14610206578063c9c4651814610222578063e7e75c7c1461024b578063ec4ca0ad14610288576100e0565b806312065fe0146100e557806324837e2514610110578063830c29ae1461014f5780638da5cb5b1461016b578063932a2a6f14610196576100e0565b366100e0577f7e71433ddf847725166244795048ecf3e3f9f35628254ecbf73605666423349333346040516100d69291906111b8565b60405180910390a1005b600080fd5b3480156100f157600080fd5b506100fa6102b3565b60405161010791906112f1565b60405180910390f35b34801561011c57600080fd5b5061013760048036038101906101329190610ebb565b6102bb565b60405161014693929190611293565b60405180910390f35b61016960048036038101906101649190610ee4565b610421565b005b34801561017757600080fd5b50610180610559565b60405161018d919061119d565b60405180910390f35b6101b060048036038101906101ab9190610ebb565b61057f565b005b3480156101be57600080fd5b506101c7610617565b6040516101d491906111e1565b60405180910390f35b3480156101e957600080fd5b5061020460048036038101906101ff9190610f0d565b6106f3565b005b610220600480360381019061021b9190610f49565b6107a4565b005b34801561022e57600080fd5b5061024960048036038101906102449190610fb0565b61093c565b005b34801561025757600080fd5b50610272600480360381019061026d9190610ebb565b610afc565b60405161027f91906112f1565b60405180910390f35b34801561029457600080fd5b5061029d610b14565b6040516102aa91906112f1565b60405180910390f35b600047905090565b6060600080600260008573ffffffffffffffffffffffffffffffffffffffff1673ffffffffffffffffffffffffffffffffffffffff168152602001908152602001600020600101600260008673ffffffffffffffffffffffffffffffffffffffff1673ffffffffffffffffffffffffffffffffffffffff16815260200190815260200160002060020154600260008773ffffffffffffffffffffffffffffffffffffffff1673ffffffffffffffffffffffffffffffffffffffff16815260200190815260200160002060030154828054610394906114ea565b80601f01602080910402602001604051908101604052809291908181526020018280546103c0906114ea565b801561040d5780601f106103e25761010080835404028352916020019161040d565b820191906000526020600020905b8154815290600101906020018083116103f057829003601f168201915b505050505092509250925092509193909250565b6000600190506104666040518060400160405280600a81526020017f6d73672e76616c7565200000000000000000000000000000000000000000000081525034610bfb565b6000808373ffffffffffffffffffffffffffffffffffffffff168360405161048d90611188565b60006040518083038185875af1925050503d80600081146104ca576040519150601f19603f3d011682016040523d82523d6000602084013e6104cf565b606091505b50915091506105136040518060400160405280600681526020017f73656e743a20000000000000000000000000000000000000000000000000000081525083610c97565b81610553576040517f08c379a000000000000000000000000000000000000000000000000000000000815260040161054a906112d1565b60405180910390fd5b50505050565b600160009054906101000a900473ffffffffffffffffffffffffffffffffffffffff1681565b6105be6040518060400160405280600881526020017f74616b652042657400000000000000000000000000000000000000000000000081525034610bfb565b34600560008373ffffffffffffffffffffffffffffffffffffffff1673ffffffffffffffffffffffffffffffffffffffff168152602001908152602001600020600082825461060d91906113eb565b9250508190555050565b60606004805480602002602001604051908101604052809291908181526020016000905b828210156106ea57838290600052602060002090600202016040518060600160405290816000820160009054906101000a900473ffffffffffffffffffffffffffffffffffffffff1673ffffffffffffffffffffffffffffffffffffffff1673ffffffffffffffffffffffffffffffffffffffff1681526020016000820160149054906101000a900460ff1660ff1660ff1681526020016001820154815250508152602001906001019061063b565b50505050905090565b60008273ffffffffffffffffffffffffffffffffffffffff168260405161071990611188565b60006040518083038185875af1925050503d8060008114610756576040519150601f19603f3d011682016040523d82523d6000602084013e61075b565b606091505b505090508061079f576040517f08c379a0000000000000000000000000000000000000000000000000000000008152600401610796906112d1565b60405180910390fd5b505050565b6000600260008373ffffffffffffffffffffffffffffffffffffffff1673ffffffffffffffffffffffffffffffffffffffff1681526020019081526020016000209050818160000160006101000a81548173ffffffffffffffffffffffffffffffffffffffff021916908373ffffffffffffffffffffffffffffffffffffffff16021790555082816001019080519060200190610842929190610d5c565b508381600201819055504281600401819055506003339080600181540180825580915050600190039060005260206000200160009091909190916101000a81548173ffffffffffffffffffffffffffffffffffffffff021916908373ffffffffffffffffffffffffffffffffffffffff1602179055506108f76040518060400160405280600d81526020017f42657420706c616365642025730000000000000000000000000000000000000081525085610bfb565b6109366040518060400160405280601281526020017f48617320706c616365642042657420257320000000000000000000000000000081525033610b5f565b50505050565b600460405180606001604052803373ffffffffffffffffffffffffffffffffffffffff1681526020018360ff16815260200142815250908060018154018082558091505060019003906000526020600020906002020160009091909190915060008201518160000160006101000a81548173ffffffffffffffffffffffffffffffffffffffff021916908373ffffffffffffffffffffffffffffffffffffffff16021790555060208201518160000160146101000a81548160ff021916908360ff1602179055506040820151816001015550506001600080828254610a2191906113eb565b92505081905550610a6a6040518060400160405280600e81526020017f4861732077616c6b6564202573200000000000000000000000000000000000008152508260ff16610bfb565b610aa96040518060400160405280600e81526020017f4861732077616c6b65642025732000000000000000000000000000000000000081525033610b5f565b3373ffffffffffffffffffffffffffffffffffffffff167fecd2178cd0c08809dcb40ecfb327640227676f5bba64e0a818779366527601e74283604051610af192919061130c565b60405180910390a250565b60056020528060005260406000206000915090505481565b6000610b576040518060400160405280601781526020017f5765206861766520256420746f74616c206d696c657321000000000000000000815250600054610bfb565b600054905090565b610bf78282604051602401610b75929190611203565b6040516020818303038152906040527f319af333000000000000000000000000000000000000000000000000000000007bffffffffffffffffffffffffffffffffffffffffffffffffffffffff19166020820180517bffffffffffffffffffffffffffffffffffffffffffffffffffffffff8381831617835250505050610d33565b5050565b610c938282604051602401610c11929190611263565b6040516020818303038152906040527f9710a9d0000000000000000000000000000000000000000000000000000000007bffffffffffffffffffffffffffffffffffffffffffffffffffffffff19166020820180517bffffffffffffffffffffffffffffffffffffffffffffffffffffffff8381831617835250505050610d33565b5050565b610d2f8282604051602401610cad929190611233565b6040516020818303038152906040527fc3b55635000000000000000000000000000000000000000000000000000000007bffffffffffffffffffffffffffffffffffffffffffffffffffffffff19166020820180517bffffffffffffffffffffffffffffffffffffffffffffffffffffffff8381831617835250505050610d33565b5050565b60008151905060006a636f6e736f6c652e6c6f679050602083016000808483855afa5050505050565b828054610d68906114ea565b90600052602060002090601f016020900481019282610d8a5760008555610dd1565b82601f10610da357805160ff1916838001178555610dd1565b82800160010185558215610dd1579182015b82811115610dd0578251825591602001919060010190610db5565b5b509050610dde9190610de2565b5090565b5b80821115610dfb576000816000905550600101610de3565b5090565b6000610e12610e0d8461135a565b611335565b905082815260208101848484011115610e2a57600080fd5b610e358482856114a8565b509392505050565b600081359050610e4c81611617565b92915050565b600081359050610e618161162e565b92915050565b600082601f830112610e7857600080fd5b8135610e88848260208601610dff565b91505092915050565b600081359050610ea081611645565b92915050565b600081359050610eb58161165c565b92915050565b600060208284031215610ecd57600080fd5b6000610edb84828501610e3d565b91505092915050565b600060208284031215610ef657600080fd5b6000610f0484828501610e52565b91505092915050565b60008060408385031215610f2057600080fd5b6000610f2e85828601610e52565b9250506020610f3f85828601610e91565b9150509250929050565b600080600060608486031215610f5e57600080fd5b6000610f6c86828701610e91565b935050602084013567ffffffffffffffff811115610f8957600080fd5b610f9586828701610e67565b9250506040610fa686828701610e3d565b9150509250925092565b600060208284031215610fc257600080fd5b6000610fd084828501610ea6565b91505092915050565b6000610fe5838361110a565b60608301905092915050565b610ffa81611453565b82525050565b61100981611441565b82525050565b61101881611441565b82525050565b60006110298261139b565b61103381856113be565b935061103e8361138b565b8060005b8381101561106f5781516110568882610fd9565b9750611061836113b1565b925050600181019050611042565b5085935050505092915050565b61108581611465565b82525050565b6000611096826113a6565b6110a081856113da565b93506110b08185602086016114b7565b6110b9816115da565b840191505092915050565b60006110d16014836113da565b91506110dc826115eb565b602082019050919050565b60006110f46000836113cf565b91506110ff82611614565b600082019050919050565b6060820160008201516111206000850182611000565b506020820151611133602085018261116a565b506040820151611146604085018261114c565b50505050565b61115581611491565b82525050565b61116481611491565b82525050565b6111738161149b565b82525050565b6111828161149b565b82525050565b6000611193826110e7565b9150819050919050565b60006020820190506111b26000830184610ff1565b92915050565b60006040820190506111cd600083018561100f565b6111da602083018461115b565b9392505050565b600060208201905081810360008301526111fb818461101e565b905092915050565b6000604082019050818103600083015261121d818561108b565b905061122c602083018461100f565b9392505050565b6000604082019050818103600083015261124d818561108b565b905061125c602083018461107c565b9392505050565b6000604082019050818103600083015261127d818561108b565b905061128c602083018461115b565b9392505050565b600060608201905081810360008301526112ad818661108b565b90506112bc602083018561115b565b6112c9604083018461115b565b949350505050565b600060208201905081810360008301526112ea816110c4565b9050919050565b6000602082019050611306600083018461115b565b92915050565b6000604082019050611321600083018561115b565b61132e6020830184611179565b9392505050565b600061133f611350565b905061134b828261151c565b919050565b6000604051905090565b600067ffffffffffffffff821115611375576113746115ab565b5b61137e826115da565b9050602081019050919050565b6000819050602082019050919050565b600081519050919050565b600081519050919050565b6000602082019050919050565b600082825260208201905092915050565b600081905092915050565b600082825260208201905092915050565b60006113f682611491565b915061140183611491565b9250827fffffffffffffffffffffffffffffffffffffffffffffffffffffffffffffffff038211156114365761143561154d565b5b828201905092915050565b600061144c82611471565b9050919050565b600061145e82611471565b9050919050565b60008115159050919050565b600073ffffffffffffffffffffffffffffffffffffffff82169050919050565b6000819050919050565b600060ff82169050919050565b82818337600083830152505050565b60005b838110156114d55780820151818401526020810190506114ba565b838111156114e4576000848401525b50505050565b6000600282049050600182168061150257607f821691505b602082108114156115165761151561157c565b5b50919050565b611525826115da565b810181811067ffffffffffffffff82111715611544576115436115ab565b5b80604052505050565b7f4e487b7100000000000000000000000000000000000000000000000000000000600052601160045260246000fd5b7f4e487b7100000000000000000000000000000000000000000000000000000000600052602260045260246000fd5b7f4e487b7100000000000000000000000000000000000000000000000000000000600052604160045260246000fd5b6000601f19601f8301169050919050565b7f4661696c656420746f2073656e64204574686572000000000000000000000000600082015250565b50565b61162081611441565b811461162b57600080fd5b50565b61163781611453565b811461164257600080fd5b50565b61164e81611491565b811461165957600080fd5b50565b6116658161149b565b811461167057600080fd5b5056fea2646970667358221220c253b7ff786ce551ada3e22c7be19887097f0cd27c66c3fa357baa1b270d8f6864736f6c63430008040033",
  "linkReferences": {},
  "deployedLinkReferences": {}
}